{
  "contractName": "Ballot",
  "abi": [
    {
      "constant": true,
      "inputs": [],
      "name": "voteCount",
      "outputs": [
        {
          "name": "",
          "type": "uint256"
        }
      ],
      "payable": false,
      "stateMutability": "view",
      "type": "function"
    },
    {
      "constant": true,
      "inputs": [
        {
          "name": "",
          "type": "uint256"
        }
      ],
      "name": "voters",
      "outputs": [
        {
          "name": "id",
          "type": "uint256"
        },
        {
          "name": "name",
          "type": "string"
        },
        {
          "name": "voted",
          "type": "bool"
        }
      ],
      "payable": false,
      "stateMutability": "view",
      "type": "function"
    },
    {
      "inputs": [],
      "payable": false,
      "stateMutability": "nonpayable",
      "type": "constructor"
    },
    {
      "anonymous": false,
      "inputs": [
        {
          "indexed": false,
          "name": "id",
          "type": "uint256"
        },
        {
          "indexed": false,
          "name": "name",
          "type": "string"
        },
        {
          "indexed": false,
          "name": "voted",
          "type": "bool"
        }
      ],
      "name": "VoterCreated",
      "type": "event"
    },
    {
      "constant": false,
      "inputs": [
        {
          "name": "_name",
          "type": "string"
        }
      ],
      "name": "createVote",
      "outputs": [],
      "payable": false,
      "stateMutability": "nonpayable",
      "type": "function"
    }
  ],
  "bytecode": "0x60806040526000805534801561001457600080fd5b506100596040518060400160405280601b81526020017f596f752068617665207375636365737366756c6c7920766f746564000000000081525061005e60201b60201c565b61021d565b60008054600190810180835560408051606081018252828152602080820187815282840187905293865284815291909420845181559151805192936100ab93908501929190910190610182565b5060408201518160020160006101000a81548160ff0219169083151502179055509050507ff11275513e89449dc5b1f529d3510dd1f53f4ef2aaac74fe701c2daea65b5f43600054826000604051808481526020018060200183151515158152602001828103825284818151815260200191508051906020019080838360005b8381101561014357818101518382015260200161012b565b50505050905090810190601f1680156101705780820380516001836020036101000a031916815260200191505b5094505050505060405180910390a150565b828054600181600116156101000203166002900490600052602060002090601f016020900481019282601f106101c357805160ff19168380011785556101f0565b828001600101855582156101f0579182015b828111156101f05782518255916020019190600101906101d5565b506101fc929150610200565b5090565b61021a91905b808211156101fc5760008155600101610206565b90565b61044f8061022c6000396000f3fe608060405234801561001057600080fd5b50600436106100415760003560e01c806313292a0214610046578063c6384071146100ee578063da58c7d914610108575b600080fd5b6100ec6004803603602081101561005c57600080fd5b81019060208101813564010000000081111561007757600080fd5b82018360208201111561008957600080fd5b803590602001918460018302840111640100000000831117156100ab57600080fd5b91908080601f0160208091040260200160405190810160405280939291908181526020018383808284376000920191909152509295506101af945050505050565b005b6100f66102d3565b60408051918252519081900360200190f35b6101256004803603602081101561011e57600080fd5b50356102d9565b604051808481526020018060200183151515158152602001828103825284818151815260200191508051906020019080838360005b8381101561017257818101518382015260200161015a565b50505050905090810190601f16801561019f5780820380516001836020036101000a031916815260200191505b5094505050505060405180910390f35b60008054600190810180835560408051606081018252828152602080820187815282840187905293865284815291909420845181559151805192936101fc93908501929190910190610388565b5060408201518160020160006101000a81548160ff0219169083151502179055509050507ff11275513e89449dc5b1f529d3510dd1f53f4ef2aaac74fe701c2daea65b5f43600054826000604051808481526020018060200183151515158152602001828103825284818151815260200191508051906020019080838360005b8381101561029457818101518382015260200161027c565b50505050905090810190601f1680156102c15780820380516001836020036101000a031916815260200191505b5094505050505060405180910390a150565b60005481565b600160208181526000928352604092839020805481840180548651600296821615610100026000190190911695909504601f810185900485028601850190965285855290949193929091908301828280156103755780601f1061034a57610100808354040283529160200191610375565b820191906000526020600020905b81548152906001019060200180831161035857829003601f168201915b5050506002909301549192505060ff1683565b828054600181600116156101000203166002900490600052602060002090601f016020900481019282601f106103c957805160ff19168380011785556103f6565b828001600101855582156103f6579182015b828111156103f65782518255916020019190600101906103db565b50610402929150610406565b5090565b61042091905b80821115610402576000815560010161040c565b9056fea165627a7a72305820f4e8fe86a20fe7eb688c6efe160664bc9065637b66e043e064c7c0ee6d3830400029",
  "source": "pragma solidity >=0.4.21 <0.6.0;\r\n\r\ncontract Ballot {\r\n    uint public voteCount = 0;\r\n\r\n     struct Voter {\r\n        uint id;\r\n        string name;\r\n        bool voted;\r\n  }\r\n\r\n  constructor() public {\r\n        createVote(\"You have successfully voted\");\r\n   }\r\n\r\n    event VoterCreated(\r\n    uint id,\r\n    string name,\r\n    bool voted\r\n  );\r\n\r\n  mapping(uint => Voter) public voters;\r\n\r\n  function createVote(string memory _name) public {\r\n    voteCount ++;\r\n    voters[voteCount] = Voter(voteCount, _name, false);\r\n    emit VoterCreated(voteCount, _name, false);\r\n  }\r\n}",
  "sourcePath": "C:/Users/onuem/Desktop/code_practice/eth-voting/contracts/Ballot.sol",
  "compiler": {
    "name": "solc",
    "version": "0.5.8+commit.23d335f2.Emscripten.clang"
  },
  "schemaVersion": "3.0.11",
  "updatedAt": "2019-08-12T15:26:06.568Z",
  "devdoc": {
    "methods": {}
  },
  "userdoc": {
    "methods": {}
  }
}