{
  "contractName": "Ballot",
  "abi": [
    {
      "constant": true,
      "inputs": [
        {
          "name": "",
          "type": "uint256"
        }
      ],
      "name": "parties",
      "outputs": [
        {
          "name": "id",
          "type": "uint256"
        },
        {
          "name": "name",
          "type": "string"
        }
      ],
      "payable": false,
      "stateMutability": "view",
      "type": "function"
    },
    {
      "constant": true,
      "inputs": [],
      "name": "voteCount",
      "outputs": [
        {
          "name": "",
          "type": "uint256"
        }
      ],
      "payable": false,
      "stateMutability": "view",
      "type": "function"
    },
    {
      "constant": true,
      "inputs": [
        {
          "name": "",
          "type": "uint256"
        }
      ],
      "name": "voters",
      "outputs": [
        {
          "name": "id",
          "type": "uint256"
        },
        {
          "name": "name",
          "type": "string"
        },
        {
          "name": "voted",
          "type": "bool"
        }
      ],
      "payable": false,
      "stateMutability": "view",
      "type": "function"
    },
    {
      "inputs": [],
      "payable": false,
      "stateMutability": "nonpayable",
      "type": "constructor"
    },
    {
      "constant": false,
      "inputs": [
        {
          "name": "name",
          "type": "string"
        }
      ],
      "name": "vote",
      "outputs": [],
      "payable": false,
      "stateMutability": "nonpayable",
      "type": "function"
    }
  ],
  "bytecode": "0x60806040526000805534801561001457600080fd5b506100596040518060400160405280601b81526020017f596f752068617665207375636365737366756c6c7920766f746564000000000081525061005e60201b60201c565b610146565b60008054600190810180835560408051808201825282815260208082018781529386526002815291909420845181559151805192936100a5939085019291909101906100ab565b50505050565b828054600181600116156101000203166002900490600052602060002090601f016020900481019282601f106100ec57805160ff1916838001178555610119565b82800160010185558215610119579182015b828111156101195782518255916020019190600101906100fe565b50610125929150610129565b5090565b61014391905b80821115610125576000815560010161012f565b90565b6104c4806101556000396000f3fe608060405234801561001057600080fd5b506004361061004c5760003560e01c806370651a1814610051578063c6384071146100ed578063da58c7d914610107578063fc36e15b146101ae575b600080fd5b61006e6004803603602081101561006757600080fd5b5035610256565b6040518083815260200180602001828103825283818151815260200191508051906020019080838360005b838110156100b1578181015183820152602001610099565b50505050905090810190601f1680156100de5780820380516001836020036101000a031916815260200191505b50935050505060405180910390f35b6100f56102fb565b60408051918252519081900360200190f35b6101246004803603602081101561011d57600080fd5b5035610301565b604051808481526020018060200183151515158152602001828103825284818151815260200191508051906020019080838360005b83811015610171578181015183820152602001610159565b50505050905090810190601f16801561019e5780820380516001836020036101000a031916815260200191505b5094505050505060405180910390f35b610254600480360360208110156101c457600080fd5b8101906020810181356401000000008111156101df57600080fd5b8201836020820111156101f157600080fd5b8035906020019184600183028401116401000000008311171561021357600080fd5b91908080601f0160208091040260200160405190810160405280939291908181526020018383808284376000920191909152509295506103b0945050505050565b005b60026020818152600092835260409283902080546001808301805487519281161561010002600019011695909504601f81018590048502820185019096528581529094919390929091908301828280156102f15780601f106102c6576101008083540402835291602001916102f1565b820191906000526020600020905b8154815290600101906020018083116102d457829003601f168201915b5050505050905082565b60005481565b600160208181526000928352604092839020805481840180548651600296821615610100026000190190911695909504601f8101859004850286018501909652858552909491939290919083018282801561039d5780601f106103725761010080835404028352916020019161039d565b820191906000526020600020905b81548152906001019060200180831161038057829003601f168201915b5050506002909301549192505060ff1683565b60008054600190810180835560408051808201825282815260208082018781529386526002815291909420845181559151805192936103f7939085019291909101906103fd565b50505050565b828054600181600116156101000203166002900490600052602060002090601f016020900481019282601f1061043e57805160ff191683800117855561046b565b8280016001018555821561046b579182015b8281111561046b578251825591602001919060010190610450565b5061047792915061047b565b5090565b61049591905b808211156104775760008155600101610481565b9056fea165627a7a723058205fd05dec40f9a6b2c9cdf00ec9535946884d1b4a127f8e64fd10eccf71e7cc770029",
  "source": "pragma solidity >=0.4.21 <0.6.0;\r\n\r\ncontract Ballot {\r\n    uint public voteCount = 0;\r\n\r\n     struct Voter {\r\n        uint id;\r\n        string name;\r\n        bool voted;\r\n  }\r\n\r\n    struct Party {\r\n        uint id;\r\n        string name;\r\n    }\r\n\r\n  constructor() public {\r\n        vote(\"You have successfully voted\");\r\n   }\r\n\r\n\r\n  mapping(uint => Voter) public voters;\r\n  mapping(uint => Party) public parties;\r\n\r\n  function vote(string memory name) public {\r\n    voteCount ++;\r\n    parties[voteCount] = Party(voteCount, name);\r\n    // emit VoterCreated(voteCount, _name, false);\r\n  }\r\n}",
  "sourcePath": "C:/Users/onuem/Desktop/code_practice/eth-voting/contracts/Ballot.sol",
  "compiler": {
    "name": "solc",
    "version": "0.5.8+commit.23d335f2.Emscripten.clang"
  },
  "schemaVersion": "3.0.11",
  "updatedAt": "2019-08-13T09:06:58.480Z",
  "devdoc": {
    "methods": {}
  },
  "userdoc": {
    "methods": {}
  }
}