{
  "contractName": "Ballot",
  "abi": [
    {
      "inputs": [],
      "payable": false,
      "stateMutability": "nonpayable",
      "type": "constructor"
    },
    {
      "constant": true,
      "inputs": [],
      "name": "getCounter",
      "outputs": [
        {
          "name": "",
          "type": "uint256"
        }
      ],
      "payable": false,
      "stateMutability": "view",
      "type": "function"
    },
    {
      "constant": false,
      "inputs": [],
      "name": "increment",
      "outputs": [],
      "payable": false,
      "stateMutability": "nonpayable",
      "type": "function"
    },
    {
      "constant": false,
      "inputs": [],
      "name": "decrement",
      "outputs": [],
      "payable": false,
      "stateMutability": "nonpayable",
      "type": "function"
    },
    {
      "constant": false,
      "inputs": [],
      "name": "reset",
      "outputs": [],
      "payable": false,
      "stateMutability": "nonpayable",
      "type": "function"
    }
  ],
  "bytecode": "0x608060405234801561001057600080fd5b5060008055600180546001600160a01b0319163317905560c6806100356000396000f3fe6080604052348015600f57600080fd5b506004361060465760003560e01c80632baeceb714604b5780638ada066e146053578063d09de08a14606b578063d826f88f146071575b600080fd5b60516077565b005b60596083565b60408051918252519081900360200190f35b60516089565b60516094565b60008054600019019055565b60005490565b600080546001019055565b6000805556fea165627a7a72305820f59a2e49367cdfa69303968848b9fc18df106bb89ac57508abd8d08edc36e5ef0029",
  "source": "pragma solidity >=0.4.0 <0.7.0;\r\n\r\ncontract Ballot{\r\n    uint256 counter;\r\n    address owner;\r\n    constructor() public {\r\n        counter = 0;\r\n        owner = msg.sender;\r\n    }\r\n    function getCounter() public view returns(uint256){\r\n        return counter;\r\n    }\r\n    function increment() public{\r\n        counter += 1;\r\n    }\r\n    function decrement() public {\r\n        counter -= 1;\r\n    }\r\n    function reset() public{\r\n        // require(msg.sender == owner, \"You have no right to perform this transaction\");\r\n        counter = 0;\r\n    }\r\n}",
  "sourcePath": "C:/Users/onuem/Desktop/code_practice/eth-voting/contracts/Ballot.sol",
  "compiler": {
    "name": "solc",
    "version": "0.5.8+commit.23d335f2.Emscripten.clang"
  },
  "schemaVersion": "3.0.11",
  "updatedAt": "2019-08-19T13:37:39.431Z",
  "devdoc": {
    "methods": {}
  },
  "userdoc": {
    "methods": {}
  }
}