{
  "contractName": "Ballot",
  "abi": [
    {
      "constant": true,
      "inputs": [
        {
          "name": "",
          "type": "uint256"
        }
      ],
      "name": "proposals",
      "outputs": [
        {
          "name": "name",
          "type": "bytes32"
        },
        {
          "name": "voteCount",
          "type": "uint256"
        }
      ],
      "payable": false,
      "stateMutability": "view",
      "type": "function"
    },
    {
      "constant": true,
      "inputs": [],
      "name": "chairperson",
      "outputs": [
        {
          "name": "",
          "type": "address"
        }
      ],
      "payable": false,
      "stateMutability": "view",
      "type": "function"
    },
    {
      "constant": true,
      "inputs": [
        {
          "name": "",
          "type": "address"
        }
      ],
      "name": "voters",
      "outputs": [
        {
          "name": "weight",
          "type": "uint256"
        },
        {
          "name": "voted",
          "type": "bool"
        },
        {
          "name": "delegate",
          "type": "address"
        },
        {
          "name": "vote",
          "type": "uint256"
        }
      ],
      "payable": false,
      "stateMutability": "view",
      "type": "function"
    },
    {
      "inputs": [
        {
          "name": "proposalNames",
          "type": "bytes32[]"
        }
      ],
      "payable": false,
      "stateMutability": "nonpayable",
      "type": "constructor"
    },
    {
      "constant": false,
      "inputs": [
        {
          "name": "voter",
          "type": "address"
        }
      ],
      "name": "giveRightToVote",
      "outputs": [],
      "payable": false,
      "stateMutability": "nonpayable",
      "type": "function"
    },
    {
      "constant": false,
      "inputs": [
        {
          "name": "_to",
          "type": "address"
        }
      ],
      "name": "delegate",
      "outputs": [],
      "payable": false,
      "stateMutability": "nonpayable",
      "type": "function"
    },
    {
      "constant": false,
      "inputs": [
        {
          "name": "proposal",
          "type": "uint256"
        }
      ],
      "name": "vote",
      "outputs": [],
      "payable": false,
      "stateMutability": "nonpayable",
      "type": "function"
    },
    {
      "constant": true,
      "inputs": [],
      "name": "winningProposal",
      "outputs": [
        {
          "name": "winningProposal_",
          "type": "uint256"
        }
      ],
      "payable": false,
      "stateMutability": "view",
      "type": "function"
    },
    {
      "constant": true,
      "inputs": [],
      "name": "winnerName",
      "outputs": [
        {
          "name": "winnerName_",
          "type": "bytes32"
        }
      ],
      "payable": false,
      "stateMutability": "view",
      "type": "function"
    }
  ],
  "bytecode": "0x608060405234801561001057600080fd5b5060405161089b38038061089b8339810180604052602081101561003357600080fd5b81019080805164010000000081111561004b57600080fd5b8201602081018481111561005e57600080fd5b815185602082028301116401000000008211171561007b57600080fd5b5050600080546001600160a01b03191633178082556001600160a01b031681526001602081905260408220559093509150505b815181101561011057600260405180604001604052808484815181106100d057fe5b60209081029190910181015182526000918101829052835460018181018655948352918190208351600290930201918255919091015190820155016100ae565b505061077a806101216000396000f3fe608060405234801561001057600080fd5b50600436106100885760003560e01c8063609ff1bd1161005b578063609ff1bd1461012c5780639e7b8d6114610146578063a3ec138d1461016c578063e2ba53f0146101c057610088565b80630121b93f1461008d578063013cf08b146100ac5780632e4176cf146100e25780635c19a95c14610106575b600080fd5b6100aa600480360360208110156100a357600080fd5b50356101c8565b005b6100c9600480360360208110156100c257600080fd5b50356102d1565b6040805192835260208301919091528051918290030190f35b6100ea6102fc565b604080516001600160a01b039092168252519081900360200190f35b6100aa6004803603602081101561011c57600080fd5b50356001600160a01b031661030b565b610134610512565b60408051918252519081900360200190f35b6100aa6004803603602081101561015c57600080fd5b50356001600160a01b0316610579565b6101926004803603602081101561018257600080fd5b50356001600160a01b03166106c5565b6040805194855292151560208501526001600160a01b03909116838301526060830152519081900360800190f35b6101346106f9565b336000908152600160205260409020805461022d5760408051600160e51b62461bcd02815260206004820152601460248201527f486173206e6f20726967687420746f20766f7465000000000000000000000000604482015290519081900360640190fd5b600181015460ff161561028a5760408051600160e51b62461bcd02815260206004820152600e60248201527f416c726561647920766f7465642e000000000000000000000000000000000000604482015290519081900360640190fd5b6001818101805460ff19169091179055600280820183905581548154909190849081106102b357fe5b60009182526020909120600160029092020101805490910190555050565b600281815481106102de57fe5b60009182526020909120600290910201805460019091015490915082565b6000546001600160a01b031681565b3360009081526001602081905260409091209081015482919060ff161561037c5760408051600160e51b62461bcd02815260206004820152601260248201527f596f7520616c726561647920766f7465642e0000000000000000000000000000604482015290519081900360640190fd5b6001600160a01b0382163314156103dd5760408051600160e51b62461bcd02815260206004820152601e60248201527f53656c662d64656c65676174696f6e20697320646973616c6c6f7765642e0000604482015290519081900360640190fd5b6001600160a01b03828116600090815260016020819052604090912001546101009004161561048a576001600160a01b0391821660009081526001602081905260409091200154610100900490911690338214156104855760408051600160e51b62461bcd02815260206004820152601960248201527f466f756e64206c6f6f7020696e2064656c65676174696f6e2e00000000000000604482015290519081900360640190fd5b6103dd565b6001818101805460ff19168217610100600160a81b0319166101006001600160a01b0386169081029190911790915560009081526020829052604090209081015460ff1615610504578154600282810154815481106104e557fe5b600091825260209091206001600290920201018054909101905561050c565b815481540181555b50505050565b600080805b60025481101561057457816002828154811061052f57fe5b906000526020600020906002020160010154111561056c576002818154811061055457fe5b90600052602060002090600202016001015491508092505b600101610517565b505090565b6000546001600160a01b031633146105c557604051600160e51b62461bcd0281526004018080602001828103825260288152602001806107276028913960400191505060405180910390fd5b6001600160a01b0381166000908152600160208190526040909120015460ff161561063a5760408051600160e51b62461bcd02815260206004820152601860248201527f54686520766f74657220616c726561647920766f7465642e0000000000000000604482015290519081900360640190fd5b6001600160a01b038116600090815260016020526040902054156106a85760408051600160e51b62461bcd02815260206004820152601360248201527f64656c656761746520746f20736f6d656f6e6500000000000000000000000000604482015290519081900360640190fd5b6001600160a01b0316600090815260016020819052604090912055565b600160208190526000918252604090912080549181015460029091015460ff82169161010090046001600160a01b03169084565b60006002610705610512565b8154811061070f57fe5b90600052602060002090600202016000015490509056fe4f6e6c79206368616972706572736f6e2063616e206769766520726967687420746f20766f74652ea165627a7a723058207611e0aa61d8e2ec23d2114b2d76f34ebfad6d2ea9bcfee890d3079a858ae8bb0029",
  "source": "pragma solidity >=0.4.22 <0.7.0;\r\n\r\n/// @title Voting with delegation.\r\ncontract Ballot {\r\n    // This declares a new complex type which will\r\n    // be used for variables later.\r\n    // It will represent a single voter.\r\n    struct Voter {\r\n        uint weight; // weight is accumulated by delegation\r\n        bool voted;  // if true, that person already voted\r\n        address delegate; // person delegated to\r\n        uint vote;   // index of the voted proposal\r\n    }\r\n\r\n    // This is a type for a single proposal.\r\n    struct Proposal {\r\n        bytes32 name;   // short name (up to 32 bytes)\r\n        uint voteCount; // number of accumulated votes\r\n    }\r\n\r\n    address public chairperson;\r\n\r\n    // This declares a state variable that\r\n    // stores a `Voter` struct for each possible address.\r\n    mapping(address => Voter) public voters;\r\n\r\n    // A dynamically-sized array of `Proposal` structs.\r\n    Proposal[] public proposals;\r\n\r\n    /// Create a new ballot to choose one of `proposalNames`.\r\n    constructor(bytes32[] memory proposalNames) public {\r\n        chairperson = msg.sender;\r\n        voters[chairperson].weight = 1;\r\n\r\n        // For each of the provided proposal names,\r\n        // create a new proposal object and add it\r\n        // to the end of the array.\r\n        for (uint i = 0; i < proposalNames.length; i++) {\r\n            // `Proposal({...})` creates a temporary\r\n            // Proposal object and `proposals.push(...)`\r\n            // appends it to the end of `proposals`.\r\n            proposals.push(Proposal({\r\n                name: proposalNames[i],\r\n                voteCount: 0\r\n            }));\r\n        }\r\n    }\r\n\r\n\r\n    // Give `voter` the right to vote on this ballot.\r\n    // May only be called by `chairperson`.\r\n    function giveRightToVote(address voter) public {\r\n        // If the first argument of `require` evaluates\r\n        // to `false`, execution terminates and all\r\n        // changes to the state and to Ether balances\r\n        // are reverted.\r\n        // This used to consume all gas in old EVM versions, but\r\n        // not anymore.\r\n        // It is often a good idea to use `require` to check if\r\n        // functions are called correctly.\r\n        // As a second argument, you can also provide an\r\n        // explanation about what went wrong.\r\n        require(\r\n            msg.sender == chairperson,\r\n            \"Only chairperson can give right to vote.\"\r\n        );\r\n        require(\r\n            !voters[voter].voted,\r\n            \"The voter already voted.\"\r\n        );\r\n        require(voters[voter].weight == 0, \"delegate to someone\");\r\n        voters[voter].weight = 1;\r\n    }\r\n\r\n    /// Delegate your vote to the voter `to`.\r\n    function delegate(address _to) public {\r\n        // assigns reference\r\n        address tmpTo = _to;\r\n        Voter storage sender = voters[msg.sender];\r\n        require(!sender.voted, \"You already voted.\");\r\n\r\n        require(tmpTo != msg.sender, \"Self-delegation is disallowed.\");\r\n\r\n        // Forward the delegation as long as\r\n        // `to` also delegated.\r\n        // In general, such loops are very dangerous,\r\n        // because if they run too long, they might\r\n        // need more gas than is available in a block.\r\n        // In this case, the delegation will not be executed,\r\n        // but in other situations, such loops might\r\n        // cause a contract to get \"stuck\" completely.\r\n        while (voters[tmpTo].delegate != address(0)) {\r\n            tmpTo = voters[tmpTo].delegate;\r\n\r\n            // We found a loop in the delegation, not allowed.\r\n            require(tmpTo != msg.sender, \"Found loop in delegation.\");\r\n        }\r\n\r\n        // Since `sender` is a reference, this\r\n        // modifies `voters[msg.sender].voted`\r\n        sender.voted = true;\r\n        sender.delegate = tmpTo;\r\n        Voter storage delegate_ = voters[tmpTo];\r\n        if (delegate_.voted) {\r\n            // If the delegate already voted,\r\n            // directly add to the number of votes\r\n            proposals[delegate_.vote].voteCount += sender.weight;\r\n        } else {\r\n            // If the delegate did not vote yet,\r\n            // add to her weight.\r\n            delegate_.weight += sender.weight;\r\n        }\r\n    }\r\n\r\n    /// Give your vote (including votes delegated to you)\r\n    /// to proposal `proposals[proposal].name`.\r\n    function vote(uint proposal) public {\r\n        Voter storage sender = voters[msg.sender];\r\n        require(sender.weight != 0, \"Has no right to vote\");\r\n        require(!sender.voted, \"Already voted.\");\r\n        sender.voted = true;\r\n        sender.vote = proposal;\r\n\r\n        // If `proposal` is out of the range of the array,\r\n        // this will throw automatically and revert all\r\n        // changes.\r\n        proposals[proposal].voteCount += sender.weight;\r\n    }\r\n\r\n    /// @dev Computes the winning proposal taking all\r\n    /// previous votes into account.\r\n    function winningProposal() public view\r\n            returns (uint winningProposal_)\r\n    {\r\n        uint winningVoteCount = 0;\r\n        for (uint p = 0; p < proposals.length; p++) {\r\n            if (proposals[p].voteCount > winningVoteCount) {\r\n                winningVoteCount = proposals[p].voteCount;\r\n                winningProposal_ = p;\r\n            }\r\n        }\r\n    }\r\n\r\n    // Calls winningProposal() function to get the index\r\n    // of the winner contained in the proposals array and then\r\n    // returns the name of the winner\r\n    function winnerName() public view\r\n            returns (bytes32 winnerName_)\r\n    {\r\n        winnerName_ = proposals[winningProposal()].name;\r\n    }\r\n}",
  "sourcePath": "C:/Users/onuem/Desktop/code_practice/eth-voting/contracts/Ballot.sol",
  "compiler": {
    "name": "solc",
    "version": "0.5.8+commit.23d335f2.Emscripten.clang"
  },
  "schemaVersion": "3.0.11",
  "updatedAt": "2019-08-11T01:33:49.612Z",
  "devdoc": {
    "methods": {},
    "title": "Voting with delegation."
  },
  "userdoc": {
    "methods": {
      "constructor": "Create a new ballot to choose one of `proposalNames`.",
      "delegate(address)": {
        "notice": "Delegate your vote to the voter `to`."
      },
      "vote(uint256)": {
        "notice": "to proposal `proposals[proposal].name`."
      },
      "winningProposal()": {
        "notice": "previous votes into account."
      }
    }
  }
}