{
  "contractName": "Election",
  "abi": [
    {
      "constant": true,
      "inputs": [],
      "name": "totalVotes",
      "outputs": [
        {
          "name": "",
          "type": "uint256"
        }
      ],
      "payable": false,
      "stateMutability": "view",
      "type": "function"
    },
    {
      "constant": true,
      "inputs": [
        {
          "name": "",
          "type": "uint256"
        }
      ],
      "name": "candidates",
      "outputs": [
        {
          "name": "name",
          "type": "string"
        },
        {
          "name": "voteCount",
          "type": "uint256"
        }
      ],
      "payable": false,
      "stateMutability": "view",
      "type": "function"
    },
    {
      "constant": true,
      "inputs": [],
      "name": "nameoFElection",
      "outputs": [
        {
          "name": "",
          "type": "string"
        }
      ],
      "payable": false,
      "stateMutability": "view",
      "type": "function"
    },
    {
      "constant": true,
      "inputs": [],
      "name": "owner",
      "outputs": [
        {
          "name": "",
          "type": "address"
        }
      ],
      "payable": false,
      "stateMutability": "view",
      "type": "function"
    },
    {
      "constant": true,
      "inputs": [
        {
          "name": "",
          "type": "address"
        }
      ],
      "name": "voters",
      "outputs": [
        {
          "name": "authorized",
          "type": "bool"
        },
        {
          "name": "voted",
          "type": "bool"
        },
        {
          "name": "vote",
          "type": "uint256"
        }
      ],
      "payable": false,
      "stateMutability": "view",
      "type": "function"
    },
    {
      "inputs": [
        {
          "name": "_name",
          "type": "string"
        },
        {
          "name": "candidate1",
          "type": "string"
        },
        {
          "name": "candidate2",
          "type": "string"
        }
      ],
      "payable": false,
      "stateMutability": "nonpayable",
      "type": "constructor"
    },
    {
      "anonymous": false,
      "inputs": [
        {
          "indexed": false,
          "name": "candidateName",
          "type": "string"
        },
        {
          "indexed": false,
          "name": "voteCount",
          "type": "uint256"
        }
      ],
      "name": "Vote",
      "type": "event"
    },
    {
      "constant": true,
      "inputs": [],
      "name": "getNumCandidates",
      "outputs": [
        {
          "name": "",
          "type": "uint256"
        }
      ],
      "payable": false,
      "stateMutability": "view",
      "type": "function"
    },
    {
      "constant": false,
      "inputs": [
        {
          "name": "_name",
          "type": "string"
        }
      ],
      "name": "addCandidates",
      "outputs": [],
      "payable": false,
      "stateMutability": "nonpayable",
      "type": "function"
    },
    {
      "constant": false,
      "inputs": [
        {
          "name": "_voter",
          "type": "address"
        }
      ],
      "name": "authorize",
      "outputs": [],
      "payable": false,
      "stateMutability": "nonpayable",
      "type": "function"
    },
    {
      "constant": false,
      "inputs": [
        {
          "name": "_candidate",
          "type": "uint256"
        }
      ],
      "name": "vote",
      "outputs": [],
      "payable": true,
      "stateMutability": "payable",
      "type": "function"
    },
    {
      "constant": true,
      "inputs": [],
      "name": "winningProposal",
      "outputs": [
        {
          "name": "_candidate",
          "type": "uint256"
        }
      ],
      "payable": false,
      "stateMutability": "view",
      "type": "function"
    },
    {
      "constant": true,
      "inputs": [],
      "name": "winnerName",
      "outputs": [
        {
          "name": "_candidate",
          "type": "string"
        }
      ],
      "payable": false,
      "stateMutability": "view",
      "type": "function"
    }
  ],
  "bytecode": "0x60806040523480156200001157600080fd5b5060405162000eeb38038062000eeb833981018060405260608110156200003757600080fd5b8101908080516401000000008111156200005057600080fd5b820160208101848111156200006457600080fd5b81516401000000008111828201871017156200007f57600080fd5b505092919060200180516401000000008111156200009c57600080fd5b82016020810184811115620000b057600080fd5b8151640100000000811182820187101715620000cb57600080fd5b50509291906020018051640100000000811115620000e857600080fd5b82016020810184811115620000fc57600080fd5b81516401000000008111828201871017156200011757600080fd5b5050600080546001600160a01b0319163317905585519093506200014592506001915060208601906200020e565b5060408051808201909152828152600060208083018290526003805460018101808355919093528351805191949360020260008051602062000ecb833981519152019262000199928492909101906200020e565b50602091820151600191820155604080518082019091528481526000818401819052600380549384018082559152815180519195509193600290930260008051602062000ecb8339815191520192620001f79284929101906200020e565b5060208201518160010155505050505050620002b3565b828054600181600116156101000203166002900490600052602060002090601f016020900481019282601f106200025157805160ff191683800117855562000281565b8280016001018555821562000281579182015b828111156200028157825182559160200191906001019062000264565b506200028f92915062000293565b5090565b620002b091905b808211156200028f57600081556001016200029a565b90565b610c0880620002c36000396000f3fe60806040526004361061009c5760003560e01c8063609ff1bd11610064578063609ff1bd1461022f57806362604e96146102445780638da5cb5b146102f7578063a3ec138d14610328578063b6a5d7de1461037b578063e2ba53f0146103ae5761009c565b80630121b93f146100a15780630d15fd77146100c05780633477ee2e146100e75780634b108d05146101905780635c06b06e1461021a575b600080fd5b6100be600480360360208110156100b757600080fd5b50356103c3565b005b3480156100cc57600080fd5b506100d5610648565b60408051918252519081900360200190f35b3480156100f357600080fd5b506101116004803603602081101561010a57600080fd5b503561064e565b6040518080602001838152602001828103825284818151815260200191508051906020019080838360005b8381101561015457818101518382015260200161013c565b50505050905090810190601f1680156101815780820380516001836020036101000a031916815260200191505b50935050505060405180910390f35b34801561019c57600080fd5b506101a5610701565b6040805160208082528351818301528351919283929083019185019080838360005b838110156101df5781810151838201526020016101c7565b50505050905090810190601f16801561020c5780820380516001836020036101000a031916815260200191505b509250505060405180910390f35b34801561022657600080fd5b506100d561078e565b34801561023b57600080fd5b506100d5610795565b34801561025057600080fd5b506100be6004803603602081101561026757600080fd5b81019060208101813564010000000081111561028257600080fd5b82018360208201111561029457600080fd5b803590602001918460018302840111640100000000831117156102b657600080fd5b91908080601f016020809104026020016040519081016040528093929190818152602001838380828437600092019190915250929550610848945050505050565b34801561030357600080fd5b5061030c610907565b604080516001600160a01b039092168252519081900360200190f35b34801561033457600080fd5b5061035b6004803603602081101561034b57600080fd5b50356001600160a01b0316610916565b604080519315158452911515602084015282820152519081900360600190f35b34801561038757600080fd5b506100be6004803603602081101561039e57600080fd5b50356001600160a01b031661093c565b3480156103ba57600080fd5b506101a5610a22565b33600090815260046020526040902054610100900460ff16156104305760408051600160e51b62461bcd02815260206004820152601360248201527f566f74657220616c726561647920766f74656400000000000000000000000000604482015290519081900360640190fd5b3360009081526004602052604090205460ff166104975760408051600160e51b62461bcd02815260206004820152601660248201527f4e6f7420617574686f72697a656420746f20766f746500000000000000000000604482015290519081900360640190fd5b60035481106104f05760408051600160e51b62461bcd02815260206004820152601560248201527f4e6f7420612076616c69642063616e6469646174650000000000000000000000604482015290519081900360640190fd5b3360009081526004602052604090206001808201839055815461ff001916610100179091556002805482019055600380548390811061052b57fe5b9060005260206000209060020201600101600082825401925050819055507f9c63d42e663889896c733776136625b0a7ed750b3da25058c975c4b572510d9b6003828154811061057757fe5b90600052602060002090600202016000016003838154811061059557fe5b90600052602060002090600202016001015460405180806020018381526020018281038252848181546001816001161561010002031660029004815260200191508054600181600116156101000203166002900480156106365780601f1061060b57610100808354040283529160200191610636565b820191906000526020600020905b81548152906001019060200180831161061957829003601f168201915b5050935050505060405180910390a150565b60025481565b6003818154811061065b57fe5b60009182526020918290206002918202018054604080516001831615610100026000190190921693909304601f8101859004850282018501909352828152909350918391908301828280156106f15780601f106106c6576101008083540402835291602001916106f1565b820191906000526020600020905b8154815290600101906020018083116106d457829003601f168201915b5050505050908060010154905082565b60018054604080516020600284861615610100026000190190941693909304601f810184900484028201840190925281815292918301828280156107865780601f1061075b57610100808354040283529160200191610786565b820191906000526020600020905b81548152906001019060200180831161076957829003601f168201915b505050505081565b6003545b90565b600080546001600160a01b031633146107e257604051600160e51b62461bcd028152600401808060200182810382526022815260200180610bbb6022913960400191505060405180910390fd5b6000805b6003548110156108435781600382815481106107fe57fe5b906000526020600020906002020160010154111561083b576003818154811061082357fe5b90600052602060002090600202016001015491508092505b6001016107e6565b505090565b6000546001600160a01b0316331461089457604051600160e51b62461bcd028152600401808060200182810382526022815260200180610bbb6022913960400191505060405180910390fd5b6040805180820190915281815260006020808301829052600380546001810180835591909352835180519194936002027fc2575a0e9e593c00f959f8c92f12db2869c3395a3b0502d05e2516446f71f85b01926108f692849290910190610b22565b506020820151816001015550505050565b6000546001600160a01b031681565b6004602052600090815260409020805460019091015460ff808316926101009004169083565b6000546001600160a01b0316331461098857604051600160e51b62461bcd028152600401808060200182810382526022815260200180610bbb6022913960400191505060405180910390fd5b6001600160a01b038116600090815260046020526040902054610100900460ff16156109fe5760408051600160e51b62461bcd02815260206004820152601360248201527f566f74657220616c726561647920766f74656400000000000000000000000000604482015290519081900360640190fd5b6001600160a01b03166000908152600460205260409020805460ff19166001179055565b6000546060906001600160a01b03163314610a7157604051600160e51b62461bcd028152600401808060200182810382526022815260200180610bbb6022913960400191505060405180910390fd5b6003610a7b610795565b81548110610a8557fe5b60009182526020918290206002918202018054604080516001831615610100026000190190921693909304601f810185900485028201850190935282815292909190830182828015610b185780601f10610aed57610100808354040283529160200191610b18565b820191906000526020600020905b815481529060010190602001808311610afb57829003601f168201915b5050505050905090565b828054600181600116156101000203166002900490600052602060002090601f016020900481019282601f10610b6357805160ff1916838001178555610b90565b82800160010185558215610b90579182015b82811115610b90578251825591602001919060010190610b75565b50610b9c929150610ba0565b5090565b61079291905b80821115610b9c5760008155600101610ba656fe4f6e6c79206f776e6572206973207065726d697474656420746f20646f2074686973a165627a7a72305820c30d6b939a487c77cc2a91a335620c29be990a4eac8427311aa16d41d0b9f77d0029c2575a0e9e593c00f959f8c92f12db2869c3395a3b0502d05e2516446f71f85b",
  "source": "pragma solidity >=0.4.0 <0.7.0;\r\n\r\ncontract Election{\r\n    address public owner;\r\n    string public nameoFElection;\r\n    \r\n    event Vote(string candidateName, uint voteCount);\r\n    \r\n    struct Candidate {\r\n        string name;\r\n        uint voteCount;\r\n    }\r\n    \r\n    struct Voter{\r\n        bool authorized;\r\n        bool voted;\r\n        uint vote; // candidate id\r\n    }\r\n    \r\n    uint public totalVotes;\r\n    Candidate[] public candidates;\r\n    mapping(address => Voter) public voters;\r\n    \r\n    modifier ownerOnly(){\r\n        require(owner == msg.sender, \"Only owner is permitted to do this\");\r\n        _;\r\n    }\r\n    \r\n    constructor(string memory _name, string memory candidate1, string memory candidate2) public {\r\n        owner = msg.sender;\r\n        nameoFElection = _name;\r\n        candidates.push(Candidate(candidate1, 0));\r\n        candidates.push(Candidate(candidate2, 0));\r\n    }\r\n    // return the number of candidates up for election\r\n    function getNumCandidates() public view returns(uint){\r\n        return candidates.length;\r\n    }\r\n    //the owner/admin of this election can add different candidates to the array\r\n    function addCandidates(string memory _name) public ownerOnly {\r\n        candidates.push(Candidate(_name, 0));\r\n    }\r\n    //owner/admin of this election has the right to either authorize or deauthorize someone from voting\r\n    function authorize(address _voter) public ownerOnly{\r\n        require(!voters[_voter].voted, \"Voter already voted\");\r\n        voters[_voter].authorized = true;\r\n    }\r\n    \r\n    function vote(uint _candidate) public payable {\r\n        require(!voters[msg.sender].voted, \"Voter already voted\");\r\n        require(voters[msg.sender].authorized, \"Not authorized to vote\");\r\n        require(_candidate < candidates.length, \"Not a valid candidate\");\r\n        \r\n        voters[msg.sender].vote = _candidate;\r\n        voters[msg.sender].voted = true;\r\n        \r\n        totalVotes += 1;\r\n        candidates[_candidate].voteCount += 1;\r\n        emit Vote(candidates[_candidate].name, candidates[_candidate].voteCount);\r\n    }\r\n    \r\n    // calculates winner with the highest votes\r\n    function winningProposal()  public view ownerOnly returns (uint _candidate){\r\n        uint winningVoteCount = 0;\r\n        for (uint p = 0; p < candidates.length; p++) {\r\n            if (candidates[p].voteCount > winningVoteCount) {\r\n                winningVoteCount = candidates[p].voteCount;\r\n                _candidate = p;\r\n            }\r\n        }\r\n    }\r\n    // declare the winner's name\r\n    function winnerName() public view ownerOnly returns (string memory  _candidate){\r\n        _candidate = candidates[winningProposal()].name;\r\n    }\r\n}",
  "sourcePath": "C:/Users/onuem/Desktop/code_practice/eth-voting/contracts/Election.sol",
  "compiler": {
    "name": "solc",
    "version": "0.5.8+commit.23d335f2.Emscripten.clang"
  },
  "schemaVersion": "3.0.11",
  "updatedAt": "2019-08-24T23:12:31.512Z",
  "devdoc": {
    "methods": {}
  },
  "userdoc": {
    "methods": {}
  }
}